:100000000C942A000C9447000C9447000C94470071
:100010000C9447000C9447000C9447000C94470044
:100020000C9447000C9447000C9447000C94470034
:100030000C9447000C9447000C9447000C94470024
:100040000C9447000C9447000C9447000C94470014
:100050000C94470011241FBECFE5D4E0DEBFCDBF16
:1000600010E0A0E6B0E0EAE6FBE002C005900D92E9
:10007000AC38B107D9F720E0ACE8B0E001C01D9280
:10008000AE38B207E1F70E9449000C94B3050C9416
:100090000000CF93DF93CDB7DEB7A9970FB6F894E2
:1000A000DEBF0FBECDBF0E940C0280E790E00E9431
:1000B00025022FEF84E39CE0215080409040E1F73F
:1000C00000C000000E943402A1E0A8A7312C0F2E2E
:1000D000FCE02F2EF02DFE0131964F015E01FDE078
:1000E000AF0EB11CCE0149969EA38DA319A60E9406
:1000F0005601182F833609F4B5C00E94FA011F3249
:1001000079F030F41B3261F01D3209F0C1C008C033
:10011000133609F4A7C0183719F01D3329F0B8C0F9
:1001200039A41FA338A6E3CFC4010E94A6026B0125
:100130007C01C5010E94A6022B013C0180EC0E94BB
:10014000E9011FA11D3239F118F41B3239F0CFCF6C
:100150001F3209F45BC01837D1F1C9CFC40CD51CCC
:10016000E61CF71CFF92EF92DF92CF92ABE7B0E074
:10017000BF93AF93FEA1FF932DA12F930E94E202A4
:10018000CE0149960E9425020FB6F894DEBF0FBE3D
:10019000CDBF1FA3ACCFC418D508E608F708FF925F
:1001A000EF92DF92CF92ABE7B0E0BF93AF93FEA1A7
:1001B000FF932DA12F930E94E202CE0149960E9447
:1001C00025020FB6F894DEBF0FBECDBF90CFA701BA
:1001D0009601C301B2010E943B029F938F937F93CC
:1001E0006F93ABE7B0E0BF93AF93FEA1FF932DA158
:1001F0002F930E94E202CE0149960E9425020FB67B
:10020000F894DEBF0FBECDBF1FA371CF41145104C0
:100210006104710441F40E9434028FE790E00E946F
:1002200025021FA364CFC701B601A30192010E945A
:100230004B025F934F933F932F93ABE7B0E0BF9395
:10024000AF93FEA1FF932DA12F930E94E202CE0156
:1002500049960E9425020FB6F894DEBF0FBECDBFAF
:100260001FA345CFD401E22D1D92EA95E9F7D501F0
:10027000E22D1D92EA95E9F7ADA1BEA1E22D1D92F6
:10028000EA95E9F70E943402F1E0F8A7312C2FCF6C
:1002900028A5213029F4F401E30DF11D108304C0D9
:1002A000F501E30DF11D1083339421CF3FE02FEFD3
:1002B0009EEF6DEF5BEF47EF31BB22BB82B3807FD8
:1002C00082BB000080B3807F80938C00803FB1F7B9
:1002D0007FEF89EFE0E071508040E040E1F700C03F
:1002E000000080B3807F80938C00803F89F37FE79C
:1002F00088E3E1E071508040E040E1F700C0000099
:1003000080B3807F80938C00803F11F392BB00000C
:1003100080B3807F80938C00803F19F010928D0015
:1003200024C062BB000080B3807F80938C00803F3C
:1003300021F081E080938D0018C052BB000080B393
:10034000807F80938C00803F21F082E080938D003D
:100350000CC042BB000080B3807F80938C00803F44
:1003600009F4AACF83E080938D0080918C00803EB9
:1003700059F4E0918D00F0E0EE0FFF1FEE0FFF1F2C
:10038000E05AFF4F80810895803D59F4E0918D003F
:10039000F0E0EE0FFF1FEE0FFF1FE05AFF4F8181CD
:1003A0000895803B59F4E0918D00F0E0EE0FFF1FBF
:1003B000EE0FFF1FE05AFF4F82810895E0918D00FC
:1003C000F0E0EE0FFF1FEE0FFF1FE05AFF4F83819B
:1003D000089588BB84E08BBB8FEC97E00197F1F721
:1003E00000C000001BBA8FE097E20197F1F700C050
:1003F0000000089588BB85E08BBB8FEC97E00197E8
:10040000F1F700C0000081E08BBB8FE097E201971D
:10041000F1F700C0000008952FE788E391E0215034
:1004200080409040E1F700C000008FEF8ABB87BB9F
:1004300088E30E94E90181E00E94E9018CE00E94CA
:10044000E90180E80E94E9010895CF93DF93EC0170
:100450008881882331F021960E94FA0189918111C7
:10046000FBCFDF91CF91089581E00E94E90180E800
:100470000E94E9010895DB018F939F930E946A0215
:10048000BF91AF91A29F800D911DA39F900DB29F30
:10049000900D11240895052E97FB1EF400940E94E0
:1004A000620257FD07D00E94750207FC03D04EF48C
:1004B0000C94620250954095309521953F4F4F4FD7
:1004C0005F4F089590958095709561957F4F8F4F00
:1004D0009F4F08950E949702A59F900DB49F900D85
:1004E000A49F800D911D11240895A1E21A2EAA1B2C
:1004F000BB1BFD010DC0AA1FBB1FEE1FFF1FA217D4
:10050000B307E407F50720F0A21BB30BE40BF50BD0
:10051000661F771F881F991F1A9469F76095709559
:10052000809590959B01AC01BD01CF010895A29FDC
:10053000B001B39FC001A39F700D811D1124911DB7
:10054000B29F700D811D1124911D08951F93FC0110
:1005500099278827BC01E89411911032E9F31930EA
:1005600010F01E30C8F31B3251F01D3249F468946C
:1005700006C00E94CD02610F711D811D911D119158
:1005800010531A30B0F33EF49095809570956195B4
:100590007F4F8F4F9F4F1F910895592F482F372F0F
:1005A000262F660F771F881F991F660F771F881FDA
:1005B000991F620F731F841F951F660F771F881F77
:1005C000991F0895AEE0B0E0E8EEF2E00C948A05E1
:1005D0000D891E8986E08C831A8309838FEF9FE73C
:1005E0009E838D83AE01475E5F4F6F89788DCE010C
:1005F00001960E940403EF81F885E00FF11F10823D
:100600002E96E4E00C94A605ACE0B0E0EAE0F3E05E
:100610000C947C057C016B018A01FC011782168217
:10062000838181FFBDC1CE0101964C01F701938109
:10063000F60193FD859193FF81916F01882309F461
:10064000ABC1853239F493FD859193FF81916F01A0
:10065000853229F4B70190E00E94EC04E7CF512CD9
:10066000312C20E02032A0F48B3269F030F480325B
:1006700059F0833269F420612CC08D3239F0803317
:1006800039F4216026C02260246023C0286021C084
:1006900027FD27C030ED380F3A3078F426FF06C02A
:1006A000FAE05F9E300D1124532E13C08AE0389E6D
:1006B000300D1124332E20620CC08E3221F426FD21
:1006C0006BC1206406C08C3611F4206802C08836E5
:1006D00041F4F60193FD859193FF81916F018111A2
:1006E000C1CF982F9F7D9554933028F40C5F1F4FF6
:1006F000FFE3F9830DC0833631F0833771F0833522
:1007000009F05BC022C0F801808189830E5F1F4F12
:1007100044244394512C540115C03801F2E06F0E6B
:10072000711CF801A080B18026FF03C0652D70E028
:1007300002C06FEF7FEFC5012C870E94E1042C01FE
:1007400083012C852F77222E17C03801F2E06F0E1F
:10075000711CF801A080B18026FF03C0652D70E0F8
:1007600002C06FEF7FEFC5012C870E94D6042C01D9
:100770002C852068222E830123FC1BC0832D90E052
:1007800048165906B0F4B70180E290E00E94EC04EC
:100790003A94F4CFF50127FC859127FE81915F0102
:1007A000B70190E00E94EC0431103A94F1E04F1A46
:1007B00051084114510471F7E5C0843611F08936AF
:1007C00039F5F80127FF07C060817181828193812B
:1007D0000C5F1F4F08C060817181882777FD80956D
:1007E000982F0E5F1F4F2F76B22E97FF09C090955E
:1007F0008095709561957F4F8F4F9F4F2068B22EE7
:100800002AE030E0A4010E941E05A82EA81844C0CA
:10081000853729F42F7EB22E2AE030E025C0F22F52
:10082000F97FBF2E8F36C1F018F4883579F0B4C047
:10083000803719F0883721F0AFC02F2F2061B22EFA
:10084000B4FE0DC08B2D8460B82E09C024FF0AC0F1
:100850009F2F9660B92E06C028E030E005C020E149
:1008600030E002C020E132E0F801B7FE07C060814D
:100870007181828193810C5F1F4F06C060817181FD
:1008800080E090E00E5F1F4FA4010E941E05A82E7D
:10089000A818FB2DFF77BF2EB6FE0BC02B2D2E7F89
:1008A000A51450F4B4FE0AC0B2FC08C02B2D2E7E55
:1008B00005C07A2C2B2D03C07A2C01C0752C24FF87
:1008C0000DC0FE01EA0DF11D8081803311F4297EF7
:1008D00009C022FF06C07394739404C0822F8678E7
:1008E00009F0739423FD13C020FF06C05A2C731423
:1008F00018F4530C5718732C731468F4B70180E282
:1009000090E02C870E94EC0473942C85F5CF73142F
:1009100010F4371801C0312C24FF12C0B70180E356
:1009200090E02C870E94EC042C8522FF17C021FF49
:1009300003C088E590E002C088E790E0B7010CC0F2
:10094000822F867859F021FD02C080E201C08BE23F
:1009500027FD8DE2B70190E00E94EC04A51438F465
:10096000B70180E390E00E94EC045A94F7CFAA9478
:10097000F401EA0DF11D8081B70190E00E94EC04C2
:10098000A110F5CF332009F451CEB70180E290E0F9
:100990000E94EC043A94F6CFF7018681978102C059
:1009A0008FEF9FEF2C96E2E10C949805FC010590E7
:1009B000615070400110D8F7809590958E0F9F1F61
:1009C0000895FC016150704001900110D8F78095A6
:1009D00090958E0F9F1F08950F931F93CF93DF93D2
:1009E000182F092FEB018B8181FD03C08FEF9FEF43
:1009F00020C082FF10C04E815F812C813D81421753
:100A000053077CF4E881F9819F012F5F3F4F3983C1
:100A10002883108306C0E885F985812F0995892BE5
:100A200029F72E813F812F5F3F4F3F832E83812FF8
:100A3000902FDF91CF911F910F910895FA01AA276E
:100A4000283051F1203181F1E8946F936E7F6E5F11
:100A50007F4F8F4F9F4FAF4FB1E03ED0B4E03CD0BF
:100A6000670F781F891F9A1FA11D680F791F8A1FA2
:100A7000911DA11D6A0F711D811D911DA11D20D009
:100A800009F468943F912AE0269F11243019305DC3
:100A90003193DEF6CF010895462F4770405D4193B4
:100AA000B3E00FD0C9F7F6CF462F4F70405D4A3301
:100AB00018F0495D31FD4052419302D0A9F7EACFC9
:100AC000B4E0A6959795879577956795BA95C9F7F8
:100AD00000976105710508959B01AC010A2E0694EB
:100AE0005795479537952795BA95C9F7620F731FA4
:100AF000841F951FA01D08952F923F924F925F92E1
:100B00006F927F928F929F92AF92BF92CF92DF921D
:100B1000EF92FF920F931F93CF93DF93CDB7DEB782
:100B2000CA1BDB0B0FB6F894DEBF0FBECDBF099416
:100B30002A88398848885F846E847D848C849B846D
:100B4000AA84B984C884DF80EE80FD800C811B817B
:100B5000AA81B981CE0FD11D0FB6F894DEBF0FBEAA
:0A0B6000CDBFED010895F894FFCF1A
:100B6A003738392F343536783132332D63303D2BCF
:100B7A0063616C63756C61746F7200256C64006DDF
:0C0B8A0061746873206572726F72000065
:00000001FF
